:020000040800F2
:1000000010360020CD510008A1100008A5100008EE
:10001000A9100008AD100008B11000080000000091
:10002000000000000000000000000000B510000803
:10003000B710000800000000275500088B54000886
:10004000F1510008F1510008F1510008F151000888
:10005000F1510008F1510008F1510008F151000878
:10006000F1510008F1510008F1510008F151000868
:10007000F1510008F1510008F1510008F151000858
:10008000F1510008F1510008F1510008F151000848
:10009000AD040008F1510008F1510008F1510008C9
:1000A000F151000811060008F1510008F151000853
:1000B000C1050008BF06000827070008F151000825
:1000C000F1510008F1510008F1510008F151000808
:1000D000F15100084B0A0008330B00089F0D00087F
:1000E000F1510008F1510008F1510008F1510008E8
:1000F00043060008F1510008F1510008F1510008D1
:10010000F1510008F151000875060008F15100088E
:1001100021080008F90F0008F1510008F15100080A
:10012000F1510008F1510008F1510008F1510008A7
:10013000F1510008F1510008F1510008F151000897
:1001400037050008F1510008F1510008F15100088D
:10015000F1510008F1510008F1510008570E000854
:10016000F1510008F1510008F1510008F151000867
:10017000F1510008F1510008F1510008F151000857
:10018000F1510008F151000800F002F800F03CF8CD
:100190000AA090E8000C82448344AAF10107DA45E2
:1001A00001D100F031F8AFF2090EBAE80F0013F0F8
:1001B000010F18BFFB1A43F001031847FCE80000C9
:1001C0001CE90000103A24BF78C878C1FAD8520759
:1001D00024BF30C830C144BF04680C6070470000C1
:1001E0000023002400250026103A28BF78C1FBD840
:1001F000520728BF30C148BF0B6070471FB50EF0D3
:10020000D8F81FBD10B510BD0AF062FE1146FFF709
:10021000F5FF00F01DF80AF080FE03B4FFF7F2FFCF
:1002200003BC0AF083FE0000184800686421B0FB9C
:10023000F1F4204605F03AF905F01EFF00F0F2F85F
:1002400000BF00231A460121184608F02DF8F8E7F0
:1002500010B586B000BF05F08DF905F008FE03204B
:1002600000214FF480720A4BCDE90132CDE9031031
:100270000A200346074A0090074807F089FC044615
:1002800005F0E2FE002006B010BD00009000002046
:100290001C01002018050020290200082DED048B08
:1002A00088B09DF81C00079007AA00216A480068E2
:1002B00007F012FB0220694908706AE007AA0021D2
:1002C0006548006807F0F2F96548007810B1012828
:1002D0005ED15CE003F047F86048D0ED030A30EEF1
:1002E000209A04F015FE39EE400AB0EE408A03F081
:1002F00036F85A48D0ED010A30EE209A04F0D1FDCC
:1003000039EE400AF0EE408A544890ED040AB0EE0F
:10031000401AF0EE480AB0EE680A04F02DFC03F033
:100320001AF8BDEEC00A10EE104A03F01CF8BDEE3C
:10033000C00A10EE105A03F012F8BDEEC00A10EE1B
:10034000106A464890F90000444991ED040ABDEE58
:10035000C00AD1ED030AFDEEE00A91ED021ABDEEEE
:10036000C11A8DED021ACDED030A8DED040A059038
:10037000084690ED010ABDEEC00A00948DED010A19
:100380002B46324637A13F4801F09BFC00E000BFFE
:1003900000BF93E708B53C4800F0A2FE032001230C
:1003A000532240F2E7310090980700F09EFE0320B0
:1003B0000123532240F2E7310090344800F095FECB
:1003C0004FF4E13001F028FA4FF4612001F029FBED
:1003D0004FF4E13001F07CFB4FF4E13001F0CCFA56
:1003E000402020232A4A4FF4FA710090294802F055
:1003F000C7FC4FF400704310254A4FF4FA71009087
:10040000254802F0BDFC02F09AFF08BD10B500BF00
:100410004FF4A06008F06CFFFFF7BCFFFF2007F06F
:1004200017FE10BD10B500BF002007F0ADF80A4957
:1004300008600B23194A0021194807F04EFB0446B7
:100440000C23184A0021184807F047FB0446FF20F8
:1004500007F0FEFD10BD000000000020A0110020EC
:1004600004000020205020256420256420256420DD
:1004700043202564202564202564202564202564EC
:10048000200D0A00004C0040FFFBAC0600040040B9
:100490000004024000640040006800401809002089
:1004A0000D040008181100209D0200087FB505F01A
:1004B00019F80546F9480078401CF84908702846A4
:1004C00005F014F8002003900024029002AB6A4665
:1004D00003A9F34802F058FEF249F1480AF0D1FBB3
:1004E000F049491CEE480AF0CCFBEE49C91CEC4827
:1004F0000AF0C7FBEC49EA480AF0C3FBEB49E848BD
:100500000AF0BFFBEA49E6480AF0BBFBE8490831BC
:10051000E3480AF0B6FBE749E1480AF0B2FBE649D6
:10052000DF480AF0AEFBE4490831DD480AF0A9FBD8
:1005300005F0C7FC7FBD7FB504F0D4FF0546D74862
:100540000078401CD5490870284604F0CFFF0020F1
:1005500003900024029002AB6A4603A9D74802F038
:1005600013FED049D5480AF08CFBCE49491CD3482C
:100570000AF087FBCB49C91CD0480AF082FBCA4964
:10058000CE480AF07EFBC949CC480AF07AFBC8493C
:10059000CA480AF076FBC6490831C8480AF071FB20
:1005A000C449C6480AF06DFBC349C4480AF069FB58
:1005B000C1490831C1480AF064FB05F082FC7FBDE7
:1005C00010B504F08FFF0446B4480078401CB349CE
:1005D0000870204604F08AFF0121880709F05DFCBD
:1005E000012812D1B6480078401EB5490870084667
:1005F000007830B9B348006807F013F90A20B04911
:1006000008700121880709F059FC05F05AFC10BD5B
:1006100010B504F067FF0446A0480078401C9F49CD
:100620000870204604F062FF0121A74809F035FC5C
:10063000012803D10121A44809F040FC05F041FC48
:1006400010BD10B504F04EFF044694480078401CDD
:1006500092490870204604F049FF01219B4809F0A7
:100660001CFC012803D10121984809F027FC05F062
:1006700028FC10BD10B504F035FF0446874800780B
:10068000401C86490870204604F030FF0121904844
:1006900009F003FC012803D101218D4809F00EFC6B
:1006A00005F00FFC10BD10B510218A4808F01AFBA8
:1006B00010BD10B51021874808F012FB10BD10B511
:1006C00004F010FF044675480078401C7349087018
:1006D000204604F00BFF01217F4809F0DEFB0128D2
:1006E0001ED101217C4809F0E9FB7C480068401CD0
:1006F0007A49086008460068322808DD0846006824
:1007000077490968884202DAFFF7D3FF01E0FFF773
:10071000CAFF72480068FA2802DD00206F490860AD
:1007200005F0CFFB10BD10B504F0DCFE04465B48BD
:100730000078401C59490870204604F0D7FE01217A
:10074000684809F0AAFB012803D10121654809F096
:10075000B5FB05F0B6FB10BD0B2806D00C2824D045
:100760000D2842D00E2859D144E05F49097830392C
:10077000642211FB02F25C494978303901EB8101B6
:1007800002EB41025849897830391144574A916047
:10079000554909793039544AD278303A02EB82020D
:1007A00001EB4201514A117438E05149097830395E
:1007B000642211FB02F24E494978303901EB810184
:1007C00002EB41024A49897830391144474A916124
:1007D000474909793039464AD278303A02EB8202E9
:1007E00001EB4201414A516118E0424909783F4A10
:1007F000D16013E0404909783039642211FB02F2DC
:100800003D494978303901EB810102EB41023A4917
:10081000897830391144354AD16100BF00BF704733
:1008200010B504F05FFE04461C480078401C1B49CC
:100830000870204604F05AFE40F225512F4809F076
:10084000F2FD01287ED140F225512C4809F022FE0C
:100850002A4809F03CFD2A490870084600784128DA
:1008600002D101202749087025480078542802D178
:10087000002024490870244800780B286FD006DC3B
:10088000012843D0022849D0032869D1D4E00C289C
:1008900067D00D2872D00E28F7D1B4E0C500002033
:1008A000006400400100F0107000F03003000012FE
:1008B0000800003203000014080000340068004003
:1008C000380000200000002000000140000401402A
:1008D000000C004000000240000400400C0000201A
:1008E00010000020000800401C0000201C11002007
:1008F000210000202600002027000020004C00409E
:10090000140000202A00002039000020FE48007852
:10091000412802D10220FD49087092E0FA4800788F
:10092000412832DBF84800785A282EDCF648007857
:10093000F74908700846007844280CD006DC4228A5
:100940001DD000E07EE043281DD10BE054280DD0DF
:10095000562818D10EE00B20EC49087014E018E07E
:100960006EE02FE00C20E94908700DE00D20E7490A
:10097000087009E00E20E549087005E03BE0002022
:10098000E249087000E000BF02E00120DF49087082
:1009900057E0DD480078DF49DF4A12788854DE48A6
:1009A0000078401CDC49087008460078052808DB00
:1009B0000B20FFF7D1FE0020D74908700320D34950
:1009C00008703EE0D0480178D448D54A1278815466
:1009D000D3480078401CD2490870084600780528A2
:1009E00008DB0C20FFF7B8FE0020CD49087003207B
:1009F000C649087025E0C4480078CA4908700D202F
:100A0000FFF7AAFE1DE0C0480078C749C74A127820
:100A10008854C6480078401CC449087008460078CD
:100A2000032808DB0E20FFF797FE0020BF4908705F
:100A30000320B649087004E00120B449087000E0C2
:100A400000BF00BF05F03DFA10BD70B504F04AFDCF
:100A50000546B7480078401CB5490870284604F0A0
:100A600045FD002440F22551B24809F0DCFC012884
:100A700024D140F22551AF4809F00CFDAD4809F0F2
:100A800026FCC4B2AC48007810B1012815D10BE0A7
:100A9000732C05D1A8480078401CA749087002E0D3
:100AA0000020A549087008E0742C02D10120A34958
:100AB00008700020A049087000BF37E028219D4839
:100AC00009F0E8FC40F227719A4809F0E3FC40F293
:100AD0002661984809F0DEFC40F22531954809F07E
:100AE000D9FC40F22441934809F0D4FC40F6460179
:100AF000904809F0CFFC40F66A118E4809F0CAFC14
:100B000060218C4809F0C6FC4FF45871894809F0FF
:100B1000C1FC4FF41871874809F0BCFC4FF4B07168
:100B2000844809F0B7FC834809F0D1FB05F0C9F906
:100B300070BD70B52DED108B04F0D4FC06467C48DA
:100B40000078401C7A490870304604F0CFFC00243D
:100B500040F225517A4809F066FC012875D140F22F
:100B60002551774809F096FC754809F0B0FBC4B2EE
:100B70007448007805280FD2DFE800F0030F1B2728
:100B80003E00412C05D16F480078401C6D4908702B
:100B900002E000206B490870FBE0542C05D1694845
:100BA0000078401C6749087002E000206549087021
:100BB000EFE060B26449087062480078401C614907
:100BC0000870002061490870E3E061485F490978D6
:100BD00044545E480078401C5C4908700846007820
:100BE0000C2808DB57480078401C56490870002044
:100BF00056490870CDE0CCE055480078554908705A
:100C00005348407848705248807888705048C0787F
:100C1000C8704F480079504908704D484079487075
:100C20004B48807988704A48C079C8704848007A33
:100C30004A4908704648407A48704548807A88702A
:100C40004348C07AC870002004E0A3E00021404A75
:100C50001154401C0C28F9DB3E4890ED000A3A483C
:100C600080ED010A3C4890ED000A374880ED020A09
:100C70003A4890ED000A344880ED030A02F06BFB1D
:100C800010EE105A28460DF023FB41EC190B2E48AC
:100C900090ED010A10EE101A08460DF019FB41EC18
:100CA0001E0B294890ED030A10EE101A08460DF0AD
:100CB0000FFB41EC1F0BB0EE4E1AF0EE6E1AB0EEC9
:100CC0004F0AF0EE6F0A0AF0CFFAB0EE40DAF0EE1B
:100CD00060DA9FED230B53EC102B51EC1D0B0CF045
:100CE00013FE41EC1C0B9FED200B53EC102B0CF072
:100CF000F9FF41EC1B0B9FED1E0B53EC102B0DF07D
:100D0000FDF941EC1A0B37E01400002039000020F7
:100D10001C1100201C0000203B00002021000020AE
:100D20003A00002026000020270000203D0000207F
:100D3000C500002000100140440000202B000020CE
:100D40000044004045000020A01100204600002083
:100D5000C41100202C0000203000002034000020AE
:100D600000000060B81E09400000000000806640DE
:100D7000000000000080564053EC192B0CF008FDD9
:100D800041EC180B0CF0D2FCCB4908610020CB4998
:100D9000087000BF05F095F8BDEC108B70BD70B504
:100DA00004F0A0FB0546C6480078401CC449087002
:100DB000284604F09BFB40F22551C24809F033FB62
:100DC00001280DD1002440F22551BE4809F062FBF4
:100DD000BC4809F07CFAC4B2204602F000FA37E0C1
:100DE0002821B84809F056FB40F22771B54809F0B0
:100DF00051FB40F22661B34809F04CFB40F225312B
:100E0000B04809F047FB40F22441AE4809F042FBEC
:100E100040F64601AB4809F03DFB40F66A11A9488F
:100E200009F038FB6021A74809F034FB4FF45871F2
:100E3000A44809F02FFB4FF41871A24809F02AFBCF
:100E40004FF4B0719F4809F025FB9E4809F03FFA26
:100E500005F037F870BD10B504F044FB044698481F
:100E60000078401C96490870204604F03FFB40F291
:100E70002551954809F0D7FA01287BD140F2255138
:100E8000914809F007FB904809F021FA8F49087052
:100E90008F48007805286FD2DFE800F00311263D67
:100EA0004B008A4800780D2805D189480078401CFD
:100EB0008749087002E000208549087060E0834897
:100EC00000780A2808D100208249087080480078FC
:100ED000401C7F49087006E07C4800780D2802D04D
:100EE00000207B4908704BE0784800787A49794ABD
:100EF0001278885477480078401C76490870084674
:100F00000078182806DB0020087071480078401C23
:100F10006F49087034E06D4800780A2805D16C48A4
:100F20000078401C6A49087002E000206849087097
:100F300026E0664800780D2818D1674890ED000A31
:100F400080ED000A90ED010A80ED010A90ED020AA1
:100F500080ED020A90ED030A80ED030A90ED040A89
:100F600080ED040A90ED050A80ED050A002058493D
:100F7000087005E005E0FFE700205549087000BF54
:100F800037E02821504809F085FA40F227714E4891
:100F900009F080FA40F226614B4809F07BFA40F2F2
:100FA0002531494809F076FA40F22441464809F0D3
:100FB00071FA40F64601444809F06CFA40F66A11AD
:100FC000414809F067FA60213F4809F063FA4FF49D
:100FD00058713D4809F05EFA4FF418713A4809F02B
:100FE00059FA4FF4B071384809F054FA364809F00C
:100FF0006EF904F066FF10BD10B504F073FA0446F4
:101000002F480078401C2E490870204604F06EFAE4
:1010100040F22551314809F006FA012805D140F285
:1010200025512E4809F036FA37E028212B4809F0DF
:1010300031FA40F22771294809F02CFA40F2266172
:10104000264809F027FA40F22531244809F022FA0F
:1010500040F22441214809F01DFA40F646011F489C
:1010600009F018FA40F66A111C4809F013FA6021D9
:101070001A4809F00FFA4FF45871184809F00AFAA3
:101080004FF41871154809F005FA4FF4B071134880
:1010900009F000FA114809F01AF904F012FF10BD26
:1010A00000BFFEE700BFFEE700BFFEE700BFFEE7B0
:1010B00000BFFEE770477047A011002045000020E8
:1010C000C5000020004800400014014047000020F7
:1010D0004800002049000020D011002000500040AE
:1010E00000BF401E0028FCD170472DE9FF41044697
:1010F0000D4616461F46DDF82880F949601A8C42D5
:1011000070D01ADCF749A4EB01008C426CD00ADCE9
:10111000B4F1804F4ED0F4482044002852D0B0F5AE
:10112000806F71D156E0B0F5806F65D0B0F5006F7B
:101130006CD0B0F5406FF4D170E0B0F5923F21D0A3
:1011400009DCB0F5806F7AD0B0F5644F0AD0B0F505
:10115000684F7CD10EE0B0F5943F1BD0B0F5963FC0
:1011600075D11FE00121084607F0C8FF19208DF84E
:1011700000006DE00121022007F0C0FF2C208DF857
:10118000000065E00121080407F0B8FF18208DF881
:1011900000005DE00121192007F0B0FF2C208DF840
:1011A000000055E00121880407F0A8FF1A208DF8FF
:1011B00000004DE00121084607F08FFF1C208DF84C
:1011C000000045E00121022007F087FF1D208DF877
:1011D00000003DE00121042007F07FFF1E208DF874
:1011E000000035E023E0FFE70121082007F075FF4C
:1011F00032208DF800002BE00121102007F06DFF58
:1012000036208DF8000023E021E0FFE701212020B7
:1012100007F063FF37208DF8000019E0012140201E
:1012200007F05BFF2B208DF8000011E007E00121A3
:10123000802007F052FF2C208DF8000008E00121EB
:10124000080207F04AFF2D208DF8000000E000BFE3
:1012500000BF0295ADF804600020ADF80C00ADF8B9
:10126000060001A9204608F060F90121204608F097
:1012700025FE01221146204608F0F8FDF8B28DF84F
:10128000010008F0FF008DF8020001208DF8030036
:10129000684608F032F80121204608F0CFF9BDE891
:1012A000FF81FEB504460D462E468D49601A8C42DC
:1012B00070D01ADC8B49A4EB01008C426CD00ADCA4
:1012C000B4F1804F4ED088482044002852D0B0F569
:1012D000806F71D156E0B0F5806F65D0B0F5006FCA
:1012E0006CD0B0F5406FF4D170E0B0F5923F21D0F2
:1012F00009DCB0F5806F7AD0B0F5644F0AD0B0F554
:10130000684F7CD10EE0B0F5943F1BD0B0F5963F0E
:1013100075D11FE00121084607F0F0FEA820ADF8C6
:1013200000006DE00121022007F0E8FEA820ADF8E2
:10133000000065E00121080407F0E0FEA820ADF8F8
:1013400000005DE00121480407F0D8FEA820ADF8B8
:10135000000055E00121880407F0D0FEA820ADF878
:1013600000004DE00121084607F0B7FE5420ADF81B
:10137000000045E00121022007F0AFFE5420ADF847
:1013800000003DE00121042007F0A7FE5420ADF845
:10139000000035E023E0FFE70121082007F09DFE73
:1013A0005420ADF800002BE00121102007F095FE3D
:1013B0005420ADF8000023E021E0FFE701212020C8
:1013C00007F08BFE5420ADF8000019E00121402009
:1013D00007F083FE5420ADF8000011E007E0012182
:1013E000802007F07AFE5420ADF8000008E00121CB
:1013F000080207F072FE5420ADF8000000E000BFC4
:1014000000BF012001900020ADF80800ADF80200F7
:101410006946204608F089F80121204608F00EF9B7
:101420004FF6FF70811B204608F0C8F803E0204605
:1014300008F0C8F886B24FF6FF708642F7DB00214D
:10144000204608F0FBF8FEBDFEB504460D462E46CC
:101450002349601A8C4276D01ADC2249A4EB0100A1
:101460008C427CD00ADCB4F1804F5AD01E48204414
:1014700000285FD0B0F5806F67D167E0B0F5806F6E
:1014800079D0B0F5006F7FD0B0F5406FF4D184E033
:10149000B0F5923F2AD009DCB0F5806F6AD0B0F584
:1014A000644F0AD0B0F5684F4FD10FE0B0F5943FCC
:1014B00025D0B0F5963F48D12AE00121084607F033
:1014C0001DFE44F2A010ADF8000082E001210220D0
:1014D00007F014FE44F2A010ADF8000079E000001F
:1014E000001C0040000C004000FCFFBF012108046C
:1014F00007F004FE44F2A010ADF8000069E00121FD
:10150000480407F0FBFD44F2A010ADF8000060E0D5
:101510000121880407F0F2FD44F2A010ADF80000AC
:1015200057E00121084607F0D8FD42F2D000ADF89F
:1015300000004EE00121022007F0CFFD42F2D00072
:10154000ADF8000045E031E009E041E00121042070
:1015500007F0C3FD42F2D000ADF8000039E00121F0
:10156000082007F0BAFD42F2D000ADF8000030E0EC
:1015700001E009E023E00121102007F0AEFD42F276
:10158000D000ADF8000024E00121202007F0A5FDE7
:1015900042F2D000ADF800001BE00121402007F02E
:1015A0009CFD42F2D000ADF8000012E00121802045
:1015B00007F093FD42F2D000ADF8000009E00121F0
:1015C000080207F08AFD42F2D000ADF8000000E00A
:1015D00000BF00BF012001900020ADF80800ADF869
:1015E00002006946204607F0A0FF0121204608F0CE
:1015F00025F84FF6FF70811B204607F0DFFF03E060
:10160000204607F0DFFF86B24FF6FF708642F7DB19
:101610000021204608F012F8FEBD70B506460C46C3
:10162000002500BF04E00A213046FFF70DFF6D1CC6
:10163000A542F8D370BD30B58BB004460D460121EC
:10164000022007F04AFD0121022007F013FD0222CB
:101650000521644807F053FB2020099002208DF8F3
:10166000280003208DF8290000208DF82A00012091
:101670008DF82B0009A95B4807F0B6FAA8B2ADF8BF
:1016800018000020ADF81A000794ADF8200006A954
:10169000554807F04AFF6020ADF804000120ADF87E
:1016A00006000020ADF8100001A94F4808F00BF823
:1016B00008214D4808F064F901214B4807F0A0FFCC
:1016C0000121494807F0BAFF6421474808F01DF995
:1016D0000BB030BD30B58BB004460D46012104205F
:1016E00007F0FBFC0121082007F0C4FC02220C21BA
:1016F0003E4807F004FB02220E213C4807F0FFFAA7
:101700004FF4A040099002208DF8280003208DF8A6
:10171000290000208DF82A0001208DF82B0009A94E
:10172000324807F061FAA8B2ADF818000020ADF811
:101730001A000794ADF8200006A92D4807F0F5FE21
:101740006020ADF804000120ADF806000020ADF8DF
:10175000100001A9264807F07DFF01A9244807F0E1
:10176000FFFF0821224808F002F90821204808F06C
:1017700014F901211E4807F043FF01211C4807F01E
:101780005DFF64211A4808F0BEF86421184808F08B
:10179000BEF80BB030BD7FB505460C4601212020B8
:1017A00007F09BFC0195ADF800400020ADF8080063
:1017B000ADF8020069460F4807F0B7FE0122114656
:1017C0000C4808F053FB37208DF80C0000208DF8F2
:1017D0000D0001208DF80E008DF80F0003A807F012
:1017E0008CFD7FBD0004024000040040000C02405C
:1017F000000800400014004070B504460D46E1B2F8
:10180000FE4808F04EFD00BF4021FC4808F03CFDBA
:101810000028F9D0204670BD10B588B004460121DB
:10182000082007F027FC0121880407F056FC072256
:101830000821F34807F063FA07220921F04807F06E
:101840005EFA4FF44070069002208DF81C008DF86F
:101850001D0000208DF81E0001208DF81F0006A934
:10186000E74807F0C1F94FF4E13002900020ADF8ED
:101870000C00ADF80E00ADF81000ADF814000C200F
:10188000ADF8120002A9DF4808F042FC0121DD4852
:1018900008F0C6FC4021DB4808F0EDFC012240F2D4
:1018A0002551D84808F09AFD27208DF80400002023
:1018B0008DF8050001208DF806008DF8070001A8BD
:1018C00007F01BFD08B010BD10B588B0044601211B
:1018D000042007F0CFFB0121202007F00FFC082295
:1018E0000621C94807F00BFA08220721C64807F06D
:1018F00006FAC020069002208DF81C008DF81D000D
:1019000000208DF81E0001208DF81F0006A9BE489A
:1019100007F06AF94FF4E13002900020ADF80C00B6
:10192000ADF80E00ADF81000ADF814000C20ADF8C5
:10193000120002A9B54808F0EBFB0121B34808F0FA
:101940006FFC4021B14808F096FC012240F225517D
:10195000AE4808F043FD47208DF8040000208DF8C4
:10196000050002208DF8060001208DF8070001A86F
:1019700007F0C3FC08B010BD10B588B004460121C3
:10198000084607F077FB0121C80407F0A6FB0822F0
:1019900000219F4807F0B3F9082201219C4807F075
:1019A000AEF90320069002208DF81C008DF81D0072
:1019B00000208DF81E0001208DF81F0006A9944814
:1019C00007F012F902940020ADF80C00ADF80E00FB
:1019D000ADF81000ADF814000C20ADF8120002A90B
:1019E0008C4808F095FB40218A4808F044FC3420DC
:1019F0008DF8040000208DF8050001208DF8060008
:101A00008DF8070001A807F078FC012240F225516B
:101A1000804808F0E3FC01217E4808F001FC08B092
:101A200010BD10B588B004460121084607F022FB1E
:101A30000121102007F062FB07220921744807F0FA
:101A40005EF907220A21724807F059F94FF4C06085
:101A5000069002208DF81C008DF81D0000208DF8E6
:101A60001E0001208DF81F0006A9694807F0BCF888
:101A700002940020ADF80C00ADF80E00ADF8100097
:101A8000ADF814000C20ADF8120002A9624808F06D
:101A90003FFB4021604808F0EEFB25208DF8040054
:101AA00000208DF8050002208DF8060001208DF839
:101AB000070001A807F021FC012240F225515648F9
:101AC00008F08CFC0121544808F0AAFB08B010BDB6
:101AD00010B588B004460121084607F0CBFA012171
:101AE000480407F0FAFA07220321494807F007F9EA
:101AF00007220221464807F002F90C200690022036
:101B00008DF81C008DF81D0000208DF81E000120AE
:101B10008DF81F0006A93E4807F066F802940020E1
:101B2000ADF80C00ADF80E00ADF81000ADF81400E3
:101B30000C20ADF8120002A9384808F0E9FA40215B
:101B4000364808F098FB26208DF8040000208DF818
:101B5000050002208DF8060001208DF8070001A87D
:101B600007F0CBFB012240F225512C4808F036FC4F
:101B700001212A4808F054FB08B010BD10B588B008
:101B8000044601940020ADF80800ADF80A00ADF855
:101B90000C00ADF810000C20ADF80E00012107F08C
:101BA00069FA0121080507F098FA144808F062FA6A
:101BB00008220C21144807F0A2F80822022110483C
:101BC00007F09DF800208DF81A0001208DF81B0009
:101BD00002208DF81800C002059002208DF819002F
:101BE00005A9094807F000F802208DF81800042024
:101BF000059005A9024806F0F7FF11E000500040EB
:101C0000000C02400048004000080240001401405F
:101C100000000240004C0040001001400044004021
:101C200001A9694808F074FA35208DF81C000120DC
:101C30008DF81F008DF81D008DF81E004FF4A06078
:101C400007F056FB07A807F058FB012240F2255188
:101C50005D4808F0C3FB01215B4808F0E1FA08B0D9
:101C600010BDF0B503460D461646002729460A2E3C
:101C700003D0002008702846F0BD33B9302001F8A9
:101C8000010B002008702846F6E7002B03DA2D2010
:101C900001F8010B5B424D4A0DE0B3FBF2F404B9CD
:101CA00037B104F1300001F8010B04FB12330127B6
:101CB0000A20B2FBF0F2002AEFD10020087028467B
:101CC000DAE70FB470B586B006460CA8019073E051
:101CD0000B9800785C281CD10B98401C0B90007866
:101CE0006E2809D072280FD10D21304608F0D9FA9C
:101CF0000B98401C0B900BE00A21304608F0D1FAFB
:101D00000B98401C0B9003E00B98401C0B9000BFFD
:101D10004BE00B980078252840D10B98401C0B9085
:101D20000078642818D0732833D1019810C8019026
:101D30000BE02178304608F0B4FA00BF402130466D
:101D400008F0A2FA0028F9D0641C20780028F0D10D
:101D50000B98401C0B9020E0019820C801900A22AB
:101D600002A92846FFF77DFF02AC0BE02178304640
:101D700008F097FA00BF4021304608F085FA0028A5
:101D8000F9D0641C20780028F0D10B98401C0B90EF
:101D900003E00B98401C0B9000BF06E00B9810F876
:101DA000011B0B90304608F07CFA00BF4021304602
:101DB00008F06AFA0028F9D00B980078002887D13B
:101DC00006B070BC5DF814FB0050004000E1F50562
:101DD0001CB50446FC4903C9CDE9000108236A4645
:101DE0000021204601F0A4F91CBDF0B587B00546DE
:101DF0000C46F549083103C9CDE9050104F54070E9
:101E00000090019000208DF808008DF8090008204E
:101E10008DF80A000598C0B28DF80B000598010AEC
:101E20008DF80C100598010C8DF80D100598000E1A
:101E30008DF80E000698C1B28DF80F100698010AB1
:101E40008DF810100698010C8DF811100698000EF0
:101E50008DF812006946284608F0BEFC06460027A9
:101E600002E0781C87B200BF3146284608F04CFDDE
:101E70000128F6D107B0F0BDF0B587B005460C4695
:101E8000D149103103C9CDE9050104F54070009036
:101E9000019000208DF808008DF8090008208DF8C9
:101EA0000A000598C0B28DF80B000598010A8DF85C
:101EB0000C100598010C8DF80D100598000E8DF88A
:101EC0000E000698C1B28DF80F100698010A8DF821
:101ED00010100698010C8DF811100698000E8DF860
:101EE00012006946284608F077FC0646002702E003
:101EF000781C87B200BF3146284608F005FD01284E
:101F0000F6D107B0F0BD2DE9F0478AB081460D4605
:101F100017469846AC4B2833D3E901021968DB68B1
:101F200007AC0DC4069105F54070019002900020A9
:101F30008DF80C008DF80D0008208DF80E00079725
:101F4000CDF82480002446E006A810F834008DF86F
:101F50000F0006A830F83400010A8DF8101006A80A
:101F600050F83400010C8DF8111006A850F8340018
:101F7000000E8DF8120006A800EBC40001798DF860
:101F8000131006A800EBC4008088010A8DF8141015
:101F900006A800EBC4004068010C8DF8151006A8D7
:101FA00000EBC4004068000E8DF8160001A94846F9
:101FB00008F012FC06464FF0000A04E00AF10100A6
:101FC0001FFA80FA00BF3146484608F09DFC012800
:101FD000F4D1601CC4B2022CB6DB0AB0BDE8F087B5
:101FE0002DE9F04188B006460C4615467649203169
:101FF00003C9CDE9060104F540700190029000206C
:102000008DF80C008DF80D0008208DF80E00079556
:102010000698C0B28DF80F000698010A8DF81010CE
:102020000698010C8DF811100698000E8DF812001C
:102030000798C1B28DF813100798010A8DF8141093
:102040000798010C8DF815100798000E8DF81600F2
:1020500001A9304608F0C0FB07464FF0000804E035
:1020600008F101001FFA80F800BF3946304608F039
:102070004BFC0128F4D108B0BDE8F0812DE9F04116
:1020800088B006460C4615464F49183103C9CDE9BC
:10209000060104F540700190029000208DF80C00BC
:1020A0008DF80D0008208DF80E0007950698C0B237
:1020B0008DF80F000698010A8DF810100698010C93
:1020C0008DF811100698000E8DF812000798C1B215
:1020D0008DF813100798010A8DF814100798010C59
:1020E0008DF815100798000E8DF8160001A93046DE
:1020F00008F072FB07464FF0000804E008F1010009
:102100001FFA80F800BF3946304608F0FDFB012871
:10211000F4D108B0BDE8F0812DE9F04104460D4648
:1021200016461F46022229462046FFF7A7FF002237
:1021300029462046FFF754FF3B46324629462046B3
:10214000FFF7E1FEBDE8F0812DE9F04188B00646D9
:102150000C4615461C49683103C9CDE9060104F552
:1021600040700190029000208DF80C008DF80D0059
:1021700008208DF80E0007950698C0B28DF80F0064
:102180000698010A8DF810100698010C8DF81110B0
:102190000698000E8DF812000798C1B28DF8131042
:1021A0000798010A8DF814100798010C8DF8151086
:1021B0000798000E8DF8160001A9304608F00CFBB8
:1021C00007464FF0000806E0B8E4000808F10100F7
:1021D0001FFA80F800BF3946304608F095FB012809
:1021E000F4D108B0BDE8F0812DE9F04104460D4678
:1021F00016461F46DDF81880052229462046FFF7BF
:102200003DFF002229462046FFF7EAFE3B463246C4
:1022100029462046FFF777FE424629462046FFF72B
:1022200093FFBDE8F081F0B587B005460C46FE4946
:1022300003C9CDE9050104F540700090019000202C
:102240008DF808008DF8090008208DF80A0005981F
:10225000C0B28DF80B000598010A8DF80C10059896
:10226000010C8DF80D100598000E8DF80E000698E3
:10227000C1B28DF80F100698010A8DF8101006985B
:10228000010C8DF811100698000E8DF812006946A9
:10229000284608F0A1FA0646002702E0781C87B21B
:1022A00000BF3146284608F02FFB0128F6D107B0C1
:1022B000F0BD2DE9F04188B006460C461546DA49D6
:1022C000083903C9CDE9060104F540700190029078
:1022D00000208DF80C008DF80D0008208DF80E0000
:1022E00007950698C0B28DF80F000698010A8DF880
:1022F00010100698010C8DF811100698000E8DF83C
:1023000012000798C1B28DF813100798010A8DF8D2
:1023100014100798010C8DF815100798000E8DF811
:10232000160001A9304608F057FA07464FF000089A
:1023300004E008F101001FFA80F800BF394630467A
:1023400008F0E2FA0128F4D108B0BDE8F08170B5D8
:1023500004460D461646324629462046FFF7A9FF99
:1023600029462046FFF75FFF70BD2DE9F04387B097
:1023700081460C4615461F4600200590069004F540
:1023800040700090019000208DF808008DF8090041
:1023900008208DF80A001DB944F25010059004E0A1
:1023A000012D02D145F25020059006970598C0B244
:1023B0008DF80B000598010A8DF80C100598010C9A
:1023C0008DF80D100598000E8DF80E000698C1B21C
:1023D0008DF80F100698010A8DF810100698010C60
:1023E0008DF811100698000E8DF8120069464846C7
:1023F00008F0F2F906464FF0000804E008F1010089
:102400001FFA80F800BF3146484608F07DFA0128DF
:10241000F4D107B0BDE8F0832DE9F04104460D4644
:1024200016461F463B46324629462046FFF79DFF8B
:1024300029462046FFF7F7FEBDE8F0812DE9F04779
:102440008AB081460D4617469846774B403BD3E904
:1024500001021968DB6807AC0DC4069105F54070F0
:102460000190029000208DF80C008DF80D000820DE
:102470008DF80E000797CDF82480002446E006A8CA
:1024800010F834008DF80F0006A830F83400010A67
:102490008DF8101006A850F83400010C8DF81110BA
:1024A00006A850F83400000E8DF8120006A800EBC4
:1024B000C40001798DF8131006A800EBC4008088D1
:1024C000010A8DF8141006A800EBC4004068010C46
:1024D0008DF8151006A800EBC4004068000E8DF8BA
:1024E000160001A9484608F077F906464FF0000AA1
:1024F00004E00AF101001FFA80FA00BF31464846A5
:1025000008F002FA0128F4D1601CC4B2022CB6DB38
:102510000AB0BDE8F0872DE9F0478AB081460D4644
:1025200017469846404B303BD3E901021968DB68F7
:1025300007AC0DC4069105F5407001900290002093
:102540008DF80C008DF80D0008208DF80E0007970F
:10255000CDF82480002446E006A810F834008DF859
:102560000F0006A830F83400010A8DF8101006A8F4
:1025700050F83400010C8DF8111006A850F8340002
:10258000000E8DF8120006A800EBC40001798DF84A
:10259000131006A800EBC4008088010A8DF81410FF
:1025A00006A800EBC4004068010C8DF8151006A8C1
:1025B00000EBC4004068000E8DF8160001A94846E3
:1025C00008F00AF906464FF0000A04E00AF101009B
:1025D0001FFA80FA00BF3146484608F095F90128F5
:1025E000F4D1601CC4B2022CB6DB0AB0BDE8F0879F
:1025F0002DE9F0478AB081460D46174698460A4BAA
:10260000203BD3E901021968DB6807AC0DC40691D1
:1026100005F540700190029000208DF80C008DF8B7
:102620000D00082002E0000030E500088DF80E00E3
:102630000797CDF82480002446E006A810F834005F
:102640008DF80F0006A830F83400010A8DF810103C
:1026500006A850F83400010C8DF8111006A850F8A7
:102660003400000E8DF8120006A800EBC4000179BA
:102670008DF8131006A800EBC4008088010A8DF8BD
:10268000141006A800EBC4004068010C8DF815106A
:1026900006A800EBC4004068000E8DF8160001A9E2
:1026A000484608F099F806464FF0000A04E00AF19F
:1026B00001001FFA80FA00BF3146484608F024F9AD
:1026C0000128F4D1601CC4B2022CB6DB0AB0BDE80C
:1026D000F087F0B587B005460C46FE4903C9CDE941
:1026E000050104F540700090019000208DF808006D
:1026F0008DF8090008208DF80A000598C0B28DF801
:102700000B000598010A8DF80C100598010C8DF846
:102710000D100598000E8DF80E000698C1B28DF8C8
:102720000F100698010A8DF810100698010C8DF80C
:1027300011100698000E8DF812006946284608F020
:102740004BF80646002702E0781C87B200BF3146EE
:10275000284608F0D9F80128F6D107B0F0BDF0B549
:1027600087B005460C46DB49083103C9CDE90501B0
:1027700004F540700090019000208DF808008DF85D
:10278000090008208DF80A000598C0B28DF80B00EA
:102790000598010A8DF80C100598010C8DF80D10A4
:1027A0000598000E8DF80E000698C1B28DF80F1036
:1027B0000698010A8DF810100698010C8DF811107A
:1027C0000698000E8DF812006946284608F004F8B5
:1027D0000646002702E0781C87B200BF3146284633
:1027E00008F092F80128F6D107B0F0BDF0B587B037
:1027F00005460C46B749103103C9CDE9050104F57A
:1028000040700090019000208DF808008DF80900BC
:1028100008208DF80A000598C0B28DF80B000598C5
:10282000010A8DF80C100598010C8DF80D10059813
:10283000000E8DF80E000698C1B28DF80F100698A4
:10284000010A8DF810100698010C8DF811100698E9
:10285000000E8DF812006946284607F0BDFF0646B7
:10286000002702E0781C87B200BF3146284608F0F6
:102870004BF80128F6D107B0F0BDF0B587B005469A
:102880000C469449183103C9CDE9050104F540709F
:102890000090019000208DF808008DF809000820B4
:1028A0008DF80A000598C0B28DF80B000598010A52
:1028B0008DF80C100598010C8DF80D100598000E80
:1028C0008DF80E000698C1B28DF80F100698010A17
:1028D0008DF810100698010C8DF811100698000E56
:1028E0008DF812006946284607F076FF0646002755
:1028F00002E0781C87B200BF3146284608F004F891
:102900000128F6D107B0F0BDF0B587B005460C46FA
:102910007049203103C9CDE9050104F540700090EC
:10292000019000208DF808008DF8090008208DF82E
:102930000A000598C0B28DF80B000598010A8DF8C1
:102940000C100598010C8DF80D100598000E8DF8EF
:102950000E000698C1B28DF80F100698010A8DF886
:1029600010100698010C8DF811100698000E8DF8C5
:1029700012006946284607F02FFF0646002702E0AE
:10298000781C87B200BF3146284607F0BDFF0128FA
:10299000F6D107B0F0BDF0B587B005460C464D49FD
:1029A000283103C9CDE9050104F54070009001907C
:1029B00000208DF808008DF8090008208DF80A0025
:1029C0000598C0B28DF80B000598010A8DF80C101F
:1029D0000598010C8DF80D100598000E8DF80E006D
:1029E0000698C1B28DF80F100698010A8DF81010E4
:1029F0000698010C8DF811100698000E8DF8120043
:102A00006946284607F0E8FE0646002702E0781CE3
:102A100087B200BF3146284607F076FF0128F6D17D
:102A200007B0F0BDF0B587B005460C4629493031F6
:102A300003C9CDE9050104F5407000900190002024
:102A40008DF808008DF8090008208DF80A00059817
:102A5000C0B28DF80B000598010A8DF80C1005988E
:102A6000010C8DF80D100598000E8DF80E000698DB
:102A7000C1B28DF80F100698010A8DF81010069853
:102A8000010C8DF811100698000E8DF812006946A1
:102A9000284607F0A1FE0646002702E0781C87B210
:102AA00000BF3146284607F02FFF0128F6D107B0B6
:102AB000F0BDF0B587B005460C460649383103C96C
:102AC000CDE9050104F540700090019000208DF8DB
:102AD000080001E038E500088DF8090008208DF8AD
:102AE0000A000598C0B28DF80B000598010A8DF810
:102AF0000C100598010C8DF80D100598000E8DF83E
:102B00000E000698C1B28DF80F100698010A8DF8D4
:102B100010100698010C8DF811100698000E8DF813
:102B200012006946284607F057FE0646002702E0D5
:102B3000781C87B200BF3146284607F0E5FE012821
:102B4000F6D107B0F0BDF0B587B005460C468B490D
:102B500003C9CDE9050104F5407000900190002003
:102B60008DF808008DF8090008208DF80A000598F6
:102B7000C0B28DF80B000598010A8DF80C1005986D
:102B8000010C8DF80D100598000E8DF80E000698BA
:102B9000C1B28DF80F100698010A8DF81010069832
:102BA000010C8DF811100698000E8DF81200694680
:102BB000284607F011FE0646002702E0781C87B27F
:102BC00000BF3146284607F09FFE0128F6D107B026
:102BD000F0BDF0B587B005460C466849083103C919
:102BE000CDE9050104F540700090019000208DF8BA
:102BF00008008DF8090008208DF80A000598C0B279
:102C00008DF80B000598010A8DF80C100598010C41
:102C10008DF80D100598000E8DF80E000698C1B2C3
:102C20008DF80F100698010A8DF810100698010C07
:102C30008DF811100698000E8DF81200694628468E
:102C400007F0CAFD0646002702E0781C87B200BFE5
:102C50003146284607F058FE0128F6D107B0F0BDEE
:102C6000F0B587B005460C464449103103C9CDE99B
:102C7000050104F540700090019000208DF80800D7
:102C80008DF8090008208DF80A000598C0B28DF86B
:102C90000B000598010A8DF80C100598010C8DF8B1
:102CA0000D100598000E8DF80E000698C1B28DF833
:102CB0000F100698010A8DF810100698010C8DF877
:102CC00011100698000E8DF812006946284607F08C
:102CD00083FD0646002702E0781C87B200BF31461C
:102CE000284607F011FE0128F6D107B0F0BDF0B577
:102CF00087B005460C462149183103C9CDE90501C5
:102D000004F540700090019000208DF808008DF8C7
:102D1000090008208DF80A000598C0B28DF80B0054
:102D20000598010A8DF80C100598010C8DF80D100E
:102D30000598000E8DF80E000698C1B28DF80F10A0
:102D40000698010A8DF810100698010C8DF81110E4
:102D50000698000E8DF812006946284607F03CFDE3
:102D60000646002702E0781C87B200BF314628469D
:102D700007F0CAFD0128F6D107B0F0BD78E50008DC
:102D80002DE9F04F8BB006460F4614461D46DDF880
:102D900050804FF00009CA46CB46B5F5807F43D03E
:102DA00012DC102D34D008DC012D25D0022D26D0C8
:102DB000042D27D0082D4FD127E0202D2BD0402DDA
:102DC0002CD0802D48D12CE0B5F5805F38D009DCBF
:102DD000B5F5007F2BD0B5F5806F2BD0B5F5006F22
:102DE0003AD12AE0B5F5005F2DD0B5F5804F2DD052
:102DF000B5F5004F30D12CE04FF000092DE04FF039
:102E000001092AE04FF0020927E04FF0030924E00E
:102E10004FF0040921E04FF005091EE04FF00609CC
:102E20001BE04FF0070918E04FF0080915E04FF0DC
:102E3000090912E04FF00A090FE04FF00B090CE00E
:102E40004FF00C0909E04FF00D0906E04FF00E09B4
:102E500003E04FF00F0900E000BF00BFB8F5807F2E
:102E60004BD01ADCB8F1100F3BD00CDCB8F1010FDD
:102E70002BD0B8F1020F2BD0B8F1040F2BD0B8F142
:102E8000080F52D12AE0B8F1200F2DD0B8F1400F31
:102E90002DD0B8F1800F48D12CE0B8F5805F38D044
:102EA00009DCB8F5007F2BD0B8F5806F2BD0B8F5D2
:102EB000006F3AD12AE0B8F5005F2DD0B8F5804F09
:102EC0002DD0B8F5004F30D12CE04FF0000A2DE0A6
:102ED0004FF0010A2AE04FF0020A27E04FF0030A00
:102EE00024E04FF0040A21E04FF0050A1EE04FF005
:102EF000060A1BE04FF0070A18E04FF0080A15E039
:102F00004FF0090A12E04FF00A0A0FE04FF00B0AE7
:102F10000CE04FF00C0A09E04FF00D0A06E04FF00C
:102F20000E0A03E04FF00F0A00E000BF00BFA948FF
:102F3000304418B1B0F5806F1AD10CE04FF0090B96
:102F400000208DF8120014208DF80400012148069D
:102F500006F0C3F80DE04FF0090B0E208DF81200BB
:102F600040208DF804000121000506F0B6F800E0CD
:102F700000BF00BFC4F3090078BBA012A0F5801009
:102F80008038092834D2DFE800F0050A0F14191E32
:102F900023292E000121084606F06CF829E00121C2
:102FA000022006F067F824E00121042006F062F810
:102FB0001FE00121082006F05DF81AE00121102031
:102FC00006F058F815E00121202006F053F810E033
:102FD0000121402006F04EF80BE009E0012180209D
:102FE00006F048F805E00121080206F043F800E089
:102FF00000BF00BF5A464946204605F080FE5A46AB
:103000005146204605F07BFE45EA08000990022063
:103010008DF828008DF8290000208DF82A00012065
:103020008DF82B0009A9204605F0DEFD304607F09B
:1030300041FA00208DF81E0001208DF81F000020AD
:103040008DF820008DF821008DF822008DF82300E6
:103050008DF81A008DF81B000B208DF81C0007203E
:103060008DF81D007D2F22D008DC0A2F0FD0142FE1
:1030700011D0322F13D0642F29D114E0FA2F1AD097
:10308000B7F5FA7F1BD0B7F57A7F20D11BE0C820B7
:10309000ADF818001CE06420ADF8180018E02820F6
:1030A000ADF8180014E01420ADF8180010E010205E
:1030B000ADF818000CE00820ADF8180008E0042076
:1030C000ADF8180004E00220ADF8180000E000BFE1
:1030D00000BF06A9304607F006FA00208DF813005D
:1030E00001208DF814000020ADF80800ADF80A00AA
:1030F000ADF80C00ADF80E00ADF8100001208DF811
:10310000150002A807F079FA00208DF805000320C9
:103110008DF8060001208DF8070001A806F0EDF8F3
:1031200001220221304607F067FD0BB0BDE8F08FA9
:103130002DE9F04385B081460D4690461E46002499
:103140000095019500208DF808008DF809008DF894
:103150000A6000BF06E018F804100DF10B000155DD
:10316000601C84B2B442F6DB6946484607F034FB83
:103170000746002400BF3946484607F0C5FB012832
:10318000F9D105B0BDE8F0832DE9F04186B0804665
:103190000D4616461F4600240021404607F094FCC9
:1031A00018B9002006B0BDE8F08101AA0021404610
:1031B00007F007FC002405E00DF10F00005D30551D
:1031C000601CC4B23878A042F6DC01982860012067
:1031D000E8E70000009CFFBFC4490870704700B5D5
:1031E0000246C348007805287BD2DFE800F00311CF
:1031F0002B404C000D2A01D04F2A05D1BC48007845
:10320000401CBB49087002E00020B94908706CE01E
:103210000A2A08D10020B7490870B5480078401C38
:10322000B34908700DE04B2A06D10120B24908705D
:103230000020AF49087004E00D2A02D00020AC49FC
:10324000087052E0AD48AB4909784254A94800786B
:10325000401CA849087008460078182806DB0020A2
:103260000870A3480078401CA14908703DE00A2A74
:1032700005D19F480078401C9D49087002E000205D
:103280009B49087031E00D2A26D10120FFF7A4FFE9
:103290009A4890ED000A9A4880ED000A974890ED10
:1032A000010A974880ED030A944890ED020A944879
:1032B00080ED040A914890ED030A914880ED010ADF
:1032C0008E4890ED040A8E4880ED020A8B4890EDFE
:1032D000050A8B4880ED050A00208549087004E046
:1032E000FFE700208249087000BF00BF00BD38B56D
:1032F000002441208DF8000054208DF801000D209D
:103300008DF802000A208DF8030000207A49087029
:103310000DE07C48FDF7E4FE002406E01DF80410F3
:10332000794806F0BEFF601CC4B2042CF6DB72487C
:1033300000780028EDD038BD6C480078704710B593
:10334000FFF7D5FF0020FFF747FF00BFFFF7F4FFAF
:103350000028FBD010BD6A4890ED000A704768480D
:1033600090ED010A7047664890ED020A7047644884
:1033700090ED030A7047624890ED040A7047604878
:1033800090ED050A704710B52DED028B84B0B0EEBC
:10339000408A002441208DF8080058208DF809004B
:1033A0000D208DF80E000A208DF80F008DED018A9A
:1033B0000198CDF80A0000204F4908700EE04DF644
:1033C000BF20FDF78DFE002406E002A8015D4E48F7
:1033D00006F067FF601CC4B2082CF6DB4648007894
:1033E0000028ECD004B0BDEC028B10BD10B52DED63
:1033F000028B84B0B0EE408A002441208DF8080092
:1034000059208DF809000D208DF80E000A208DF846
:103410000F008DED018A0198CDF80A000020364991
:1034200008700EE04DF6BF20FDF75AFE002406E0BE
:1034300002A8015D344806F034FF601CC4B2082CB9
:10344000F6DB2D4800780028ECD004B0BDEC028BF0
:1034500010BD10B52DED028B84B0B0EE408A002473
:103460009FED2A0AB4EEC08AF1EE10FA06DD9FED58
:10347000280A38EE400AB0EE408A0CE09FED250A9B
:10348000B4EEC08AF1EE10FA05D29FED210A38EEB3
:10349000000AB0EE408A41208DF808008DF809003E
:1034A0000D208DF80E000A208DF80F008DED018A99
:1034B0000198CDF80A0000200F4908700EE04DF683
:1034C000BF20FDF70DFE002406E002A8015D0E48B6
:1034D00006F0E7FE601CC4B2082CF6DB0648007854
:1034E0000028ECD004B0BDEC028B10BD4B000020D6
:1034F0004C0000204D0000204A000020E811002070
:1035000000120020BF450400004800400000344382
:103510000000B443000034C310B52DED048BB0EEB1
:10352000408AF0EE608AB0EE419A0121FE48FFF732
:103530005DF9BDEC048B10BD10B52DED048BF0EEE4
:10354000408AB0EE608A9FEDF90AB4EEC08AF1EECF
:1035500010FA05DB9FEDF50A30EE480AB0EE408A1E
:10356000DFEDF20A88EE200ADFEDF10A20EE200AF4
:10357000B0EE409A07F0D4FF20EE280AED4880ED27
:10358000000A9FEDED0A38EE000A9FEDE81AC0EE42
:10359000010A9FEDE70A20EE800AB0EE409A07F09C
:1035A000BFFF20EE280AE34880ED010A9FEDE20A02
:1035B00070EE480A9FEDDD1A80EE810ADFEDDC0A2D
:1035C00020EE200AB0EE409A07F0AAFF20EE280A6B
:1035D000D84880ED020AD0ED000A9FEDD51A80EEA2
:1035E000810ADFEDD60A80EE201A9FEDD50A21EE82
:1035F000000AF7EE000A20EE200ABDEEC00A10EE27
:10360000104A22460121CF48FEF7A1FEC948D0ED5D
:10361000010A9FEDC71A80EE810A9FEDC81AC0EE1D
:10362000010A9FEDC70A20EE800AF7EE000A20EE9D
:10363000200ABDEEC00A10EE104A22460221C148FF
:10364000FEF785FEBB48D0ED020A9FEDB91A80EE69
:10365000810ADFEDBA0A80EE201A9FEDB90A21EE49
:10366000000AF7EE000A20EE200ABDEEC00A10EEB6
:10367000104A22460221B348FEF769FEBDEC048BD6
:1036800010BD10B52DED108B86B0F0EE409AF0EE27
:10369000608AB0EE418A9FEDAC0AB0EE409A9FED91
:1036A000AA0AB0EE40FA9FEDA80AF0EE40FA9FEDAC
:1036B000A60A8DED050A9FEDA40A8DED040A0020EF
:1036C00001900290039018EE100A0AF001FE41ECFE
:1036D0001E0B9FED9E1BB0EE4E0AF0EE6E0A07F039
:1036E000D3FFB0EE40CAF0EE60CA18EE900A0AF0BE
:1036F000EFFD41EC1E0B9FED951BB0EE4E0AF0EE78
:103700006E0A07F0C1FFB0EE40DAF0EE60DA53EC7B
:103710001C2B51EC1D0B0AF03BF841EC1B0BB0EEDF
:103720004B0AF0EE6B0A09F037FAB0EE40AAF0EE61
:1037300060AA51EC1A0B09F0F9FF0FEE100A89EE9E
:103740008F0AB0EE409A9FED830A38EE400A10EEE1
:10375000101A08460AF0BCFD41EC1B0BB0EE4B0AF8
:10376000F0EE6B0A07F084FFB0EE40AAF0EE60AA1C
:1037700051EC1A0B09F0DAFF0FEE900AB0EE080ACE
:1037800009F047FAF0EE480A50EE280A9FED720A57
:1037900030EEC00A10EE104A20460AF099FD41ECC6
:1037A0001C0BB0EE4C0AF0EE6C0A07F061FFB0EEB5
:1037B00040BAF0EE60BA9FED650B53EC102B51EC64
:1037C0001B0B0AF0A1F841EC1A0B09F0AFFF0590B2
:1037D000B0EE080A09F01DFAF1EE400AB0EE480A10
:1037E00010EEA80ADFED5C0A30EE600A10EE104A17
:1037F00020460AF06DFD41EC1C0BB0EE4C0AF0EED9
:103800006C0A07F035FFB0EE40BAF0EE60BA9FEDFB
:103810004F0B53EC102B51EC1B0B0AF075F841ECDD
:103820001A0B09F083FF049029EE2F0A8DED010A8F
:10383000F1EE490A9DED050A20EE800A8DED020A9F
:10384000F1EE490A9DED040A20EE800A8DED030A8F
:103850009DED010A9FED361AC0EE010A9FED371A61
:1038600080EE810ADFED360A20EE200AF7EE000A2C
:1038700020EE200ABDEEC00A10EE104A22460121B9
:103880003048FEF764FDDDED020A9FED291A80EE57
:10389000810A9FED2A1AC0EE010A9FED290A20EE47
:1038A000800AF7EE000A20EE200ABDEEC00A10EEF4
:1038B000104A224602212348FEF749FDDDED030AA6
:1038C0009FED1B1A80EE810A9FED1C1AC0EE010AC3
:1038D0009FED1B0A20EE800AF7EE000A20EE200A78
:1038E000BDEEC00A10EE104A224602211548FEF72E
:1038F0002EFD06B0BDEC108B10BD10B52DED088B64
:10390000B0EE408AF0EE608A9FED0F0AB0EE409A6A
:1039100012480068401C11490860C8EE280A084691
:1039200090ED000A1CE000000068004000003443F5
:10393000DC0F4940181200200000F0420000FE4257
:10394000000000460064004000000000000000008D
:10395000000000405C8F4C435C8FCC43780000201B
:10396000B8EEC00A9FEDFE1A20EE010A60EE800A52
:103970001FED111A80EE810A5FED140A20EE200A75
:10398000B0EE409A19EE100A0AF0A2FC41EC1B0BB3
:10399000B0EE4B0AF0EE6B0A07F06AFEB0EE40AAFA
:1039A000F0EE60AA9FEDEF0B53EC102B51EC1A0BCD
:1039B0000AF096FA02D80020EC490860F0EE490AB5
:1039C000B0EE480AFFF7B8FDBDEC088B10BD00B59E
:1039D0002DED088B85B0B0EE408AF0EE608AB0EE37
:1039E00041AAB0EE619A1FED280AF0EE409A9FEDD1
:1039F000E00AF0EE40AA5FED330A8AEE200A5FED9E
:103A0000340A20EE200A20EE2A0A5FED2E0A20EE6C
:103A1000200AF0EE409A38EEC90A1FED3C1AC0EEBB
:103A2000010A1FED3D0A20EE800AB0EE40BA07F011
:103A300077FDF0EE690A58EE000ACDED020A38EE85
:103A4000C90A5FED430A70EE200A1FED481A80EEA6
:103A5000810A5FED490A20EE200AB0EE40BA07F075
:103A60005FFDF0EE690A58EE000ACDED030A38EE6C
:103A7000C90A5FED4F0A70EEC00A1FED541A80EEBE
:103A8000810A5FED550A20EE200AB0EE40BA07F039
:103A900047FDF0EE690A58EE000ACDED040A9DEDEF
:103AA000020ADFEDB40AB4EEE00AF1EE10FA0AD22F
:103AB0009DED020AB5EEC00AF1EE10FA03DD9FEDAE
:103AC000AD0A8DED020A9DED030ADFEDAA0AB4EE00
:103AD000E00AF1EE10FA0AD29DED030AB5EEC00A33
:103AE000F1EE10FA03DD9FEDA30A8DED030A9DEDC3
:103AF000040ADFEDA00AB4EEE00AF1EE10FA0AD2F1
:103B00009DED040AB5EEC00AF1EE10FA03DD9FED5B
:103B1000990A8DED040A9DED020ADFED970AB4EED5
:103B2000E00AF1EE10FA0ADD9DED020AB5EEC00AD8
:103B3000F1EE10FA03D29FED900A8DED020A9DED91
:103B4000030ADFED8D0AB4EEE00AF1EE10FA0ADDA9
:103B50009DED030AB5EEC00AF1EE10FA03D29FED17
:103B6000860A8DED030A9DED040ADFED830AB4EEAB
:103B7000E00AF1EE10FA0ADD9DED040AB5EEC00A86
:103B8000F1EE10FA03D29FED7C0A8DED040A7B481A
:103B90000078F0B99DED020ABDEEC00A10EE102AC1
:103BA00002217748FEF7D3FB9DED030ABDEEC00A64
:103BB00010EE102A03217248FEF7C9FB9DED040A9E
:103BC000BDEEC00A10EE102A01216D48FEF7BFFBC2
:103BD0000EE0002202216A48FEF7B9FB0022032111
:103BE0006748FEF7B4FB002201216548FEF7AFFBF2
:103BF0009DED030ABDEEC00A8DED000A9DED020A9F
:103C0000BDEEC00A10EE103A9DED040ABDEEC00AEA
:103C100010EE102A5BA15F48FEF753F89DED020AF3
:103C2000DDED030A9DED041A05B0BDEC088B00BD67
:103C3000B0EE401AF0EE601A1FEDBD2AF0EE420A17
:103C40001FEDBF2AB0EE420A31EE612AF0EE420AC1
:103C50001FEDCA2AF4EEC20AF1EE10FA06DD9FED5E
:103C60004E2A30EEC22AF0EE420A0CE09FED4B2ABB
:103C7000F4EEC20AF1EE10FA05D29FED472A30EEBB
:103C8000822AF0EE420A464890ED002A5FEDD22AE1
:103C900002EEA02A80ED002A90ED002ADFED412AF5
:103CA000B4EEE22AF1EE10FA04DD9FED3E2A80ED3B
:103CB000002A0DE03A4890ED002ADFED3B2AB4EEF1
:103CC000E22AF1EE10FA03D29FED372A80ED002AA6
:103CD000B0EE082A20EE822A3148D0ED002A1FEDEE
:103CE000E63A03EE222A3148D0ED002A70EEE22AAD
:103CF0001FEDEB3A03EE222AB0EE420A9FED2C2A8A
:103D0000B4EEC20AF1EE10FA04DD9FED292AB0EEFE
:103D1000420A0AE09FED272AB4EEC20AF1EE10FA39
:103D200003D29FED242AB0EE420A2048C0ED000ADB
:103D30007047F0EE400A1FEDFC1AB0EE410A1E4833
:103D400090ED001ADFED1D1A01EEA01A80ED001AA9
:103D500090ED001ADFED1A1AB4EEE11A32E000001D
:103D60000AD7233C00000000008076407800002045
:103D70000000A04200008045000080C52A0000200D
:103D800000680040204F2025642025642025642001
:103D900000000000004C00400000B443000034C3A9
:103DA0008400002000001643000016C38800002095
:103DB00000004843000048C37C00002000000000D1
:103DC0000080BB44F1EE10FA04DD1FED031A80ED14
:103DD000001A0DE0FE4890ED001ADFEDFE1AB4EE79
:103DE000E11AF1EE10FA03D29FEDFA1A80ED001AF3
:103DF000B1EE041A20EE811AF548D0ED001A1FED3D
:103E0000112A02EE211AF448D0ED001A70EEE11AE0
:103E10001FED162A02EE211AB0EE410A9FEDEF1AAD
:103E2000B4EEC10AF1EE10FA04DD9FEDEC1AB0EE2B
:103E3000410A0AE09FEDEA1AB4EEC10AF1EE10FA67
:103E400003D29FEDE71AB0EE410AE348C0ED000A45
:103E5000704710B52DED108B8EB0B0EE40AAB0EECD
:103E6000609AF0EE41CAB0EE61BAF0EE42AAB0EE4E
:103E700062DA1FED2E0AB0EE408A1FED300AF0EE36
:103E800040BA1FED320AF0EE408A1FED340A8DED84
:103E90000D0A1FED360AF0EE409A1FED380AF0EEDB
:103EA00040DA1FED3A0AB0EE40EA1FED3C0AF0EEB0
:103EB00040EA1FED3E0AB0EE40CA1FED400AB0EEE8
:103EC00040FA00200A900B900C902AEE0A0A09EEA4
:103ED000090A10EE101A08460AF0FAF9CDE90201B3
:103EE0009DED020B08F058FE8DED060BFFF737FA3B
:103EF00060EE0AFAFFF737FA49EE00FA3FEEAC0A35
:103F000010EE104A20460AF0E3F9CDE904019DEDD8
:103F1000060B53EC102B9DED040B51EC100B09F02C
:103F2000F3FCCDE908019DED080B51EC100B09F0F5
:103F3000FDFB09EE900A19EE100A0AF0C9F9CDE965
:103F400006019DED060B07F093FB8DED080B9FED31
:103F5000A50B53EC102B9DED080B51EC100B09F049
:103F600085FE2AD2B5EEC0BAF1EE10FA12D19FED5D
:103F70009F0AB0EE408AF5EEC09AF1EE10FA04DD29
:103F80009FED9B0AF0EE408A78E01FED740AF0EE98
:103F9000408A73E09FED970AB0EE408AF5EEC09A32
:103FA000F1EE10FA04DD9FED920AF0EE408A65E032
:103FB0001FED7E0AF0EE408A60E0B1EE4A0AC0EEE4
:103FC000090A10EE904A20460AF082F9CDE9020172
:103FD0009DED020B06F0DCFF8DED040B9FED860BD3
:103FE00053EC102B9DED040B51EC100B09F08CFCE5
:103FF0009FED830B53EC102BCDE906019DED060BD5
:1040000051EC100B09F06EFECDE908019DED080B97
:1040100051EC100B09F08AFB08EE100AB5EEC0BA9D
:10402000F1EE10FA18D09FED720A38EE000AB0EEE9
:10403000408AF5EEC09AF1EE10FA06DD9FED6B0AAC
:1040400038EE000AF0EE408A18E09FED680A38EE7C
:10405000400AF0EE408A11E0F5EEC09AF1EE10FA57
:1040600006DD9FED620A38EE400AF0EE408A05E078
:104070009FED5E0A38EE000AF0EE408A9FED5C0A82
:10408000B4EEC08AF1EE10FA06DD1FEDBD0A38EE7F
:10409000400AB0EE408A20E01FEDC00AB4EEC08AAC
:1040A000F1EE10FA19D218EE100A0AF011F91FED0C
:1040B000D30B53EC102BCDE906019DED060B51EC13
:1040C000100B09F065FBCDE908019DED080B51ECE3
:1040D000100B09F02BFB08EE100A9FED450AF4EED9
:1040E000C08AF1EE10FA06DD1FEDD50A38EEC00ADF
:1040F000F0EE408A0CE01FEDD70AF4EEC08AF1EE34
:1041000010FA05D21FEDDC0A38EE800AF0EE408A84
:1041100019EE900A0AF0DCF8CDE906019DED060BD8
:1041200007F0A6FA8DED080B9DED080B51EC100B76
:1041300009F0FCFA09EE900AB0EE690AFFF7F9FD02
:10414000F0EE40BADFED2A0A88EE200ADFED2E0AF3
:1041500020EE200AF0EE40FA07F0E2F960EE2AFACB
:10416000DFED230A88EEA00ADFED270A20EE200A01
:104170008DED090A9DED090A07F0D2F94BEE80FAA0
:10418000F0EE6FEADFED1A0A88EE200ADFED1E0A74
:1041900020EE200AF0EE40FA08F036FC60EE2AFA33
:1041A000DFED130A88EEA00ADFED170A20EE200AE1
:1041B0008DED090A9DED090A08F026FC4BEE80FA08
:1041C000B0EE6FCA6EEEAE0A4CEE0C0A1EE00000B6
:1041D0007C0000200080BBC4800000200000FA4466
:1041E0000000FAC4000000E04D62503F0000B442FD
:1041F000000034430000B4C200000080FB210940ED
:104200000000000000806640DC0F4940B0EE600A0C
:1042100008F0FFFCF0EE40DA1EEE900A0AF058F8C3
:10422000CDE902011CEE100A0AF052F8CDE90001B6
:104230009DED021B9DED000B07F016F88DED040BB4
:104240001FED130B53EC102B9DED040B51EC100BD9
:1042500009F05AFB1FED160B53EC102BCDE90601AC
:104260009DED060B51EC100B09F03CFDCDE908016A
:104270009DED080B51EC100B09F058FA0EEE100AE8
:10428000FFF769F8F0EE40FAF0EE6F0AB0EE4D0A73
:10429000FFF7CEFCB0EE40FABDEEE80AFDEEEB0A09
:1042A000CDED000A8DED010ABDEEC80A10EE103A00
:1042B000BDEEEA0A10EE102AFAA1FE48FDF701FD54
:1042C000BDEECF0A8DED000ABDEECE0A10EE103A1B
:1042D000BDEEED0A10EE102AF7A1F648FDF7F1FC4D
:1042E000FFF739F8F0EE40FAF0EE6F1AB0EE4F1A21
:1042F000F0EE4E0AB0EE6D0AFFF769FB8DED0A0A8B
:10430000CDED0B0A8DED0C1ADDED0A0A1FED421AF8
:1043100080EE810A9FEDEB1AC0EE010A9FEDEA0ADA
:1043200020EE800AF7EE000A20EE200ABDEEC00A59
:1043300010EE104A204609F06EFCE44A03C2DDED9F
:104340000B0A1FED4F1A80EE810A9FEDDE1AC0EEB8
:10435000010A9FEDDD0A20EE800AF7EE000A20EE4A
:10436000200ABDEEC00A10EE104A204609F053FCA8
:10437000D74A03C2DDED0C0A1FED5D1A80EE810AFB
:104380009FEDD01AC0EE010A9FEDCF0A20EE800A01
:10439000F7EE000A20EE200ABDEEC00A10EE104A29
:1043A000204609F038FCCB4A03C2CB4800780028ED
:1043B0006CD1C64890ED000B07F05AF98DED080B53
:1043C0009FEDC60B53EC102B9DED080B51EC100B21
:1043D00009F04CFC04D29FEDC10BBC4880ED000BF2
:1043E000BB4890ED000B07F043F98DED080B9FEDF6
:1043F000BB0B53EC102B9DED080B51EC100B09F08F
:1044000035FC04D29FEDB50BB14880ED000BB148EF
:1044100090ED000B07F02CF98DED080B9FEDAF0B25
:1044200053EC102B9DED080B51EC100B09F01EFC0A
:1044300004D29FEDAA0BA74880ED000BA34890ED96
:10444000000B51EC100B09F0B7FB0446224601218A
:10445000A448FDF77CFF9E4890ED000B51EC100B3B
:1044600009F0AAFB0446224602219E48FDF76FFF91
:10447000984890ED000B51EC100B09F09DFB0446A1
:10448000224603219748FDF762FF0EE0002201213A
:104490009448FDF75CFF002202219248FDF757FF88
:1044A000002203218F48FDF752FF0EB0BDEC108BA8
:1044B00010BD30B52DED108B8FB0F0EE409AF0EEC0
:1044C000608AB0EE419AB0EE61AAB0EE42CAF0EE58
:1044D00062CA9FED850AB0EE408A9FED830AB0EE76
:1044E00040DA9FED810AF0EE40AA9FED7F0AB0EE20
:1044F00040BA9FED7D0AF0EE40DA9FED7B0AF0EEC8
:1045000040BA9FED790AB0EE40EA9FED770AF0EEEF
:1045100040EA9FED750AB0EE40FA00200C900D9035
:104520000E900024B5EEC0CAF1EE10FA4AD1FEF7A3
:1045300016FF30EE680A10EE105A284609F0C8FE41
:10454000CDE90201FEF70FFF30EE490A10EE105AD6
:10455000284609F0BDFECDE900019DED021B9DED51
:10456000000B06F081FE8DED040B1FEDDD0B53EC0F
:10457000102B9DED040B51EC100B09F0C5F91FED4C
:10458000E00B53EC102BCDE906019DED060B51EC31
:10459000100B09F0A7FB9FED550B53EC102BCDE949
:1045A00008019DED080B51EC100B09F0F1F8CDE975
:1045B0000A019DED0A0B51EC100B09F0B7F808EE5B
:1045C000100A49E0FEF7CBFE30EE680A10EE105AF2
:1045D000284609F07DFECDE90201FEF7C4FE30EE6B
:1045E000490A10EE105A284609F072FECDE9000182
:1045F0009DED021B9DED000B06F036FE8DED040BCC
:104600009FED3C0B53EC102B9DED040B51EC100B6C
:1046100009F07AF99FED390B53EC102BCDE9060127
:104620009DED060B51EC100B09F05CFB9FED2F0B81
:1046300053EC102BCDE908019DED080B51EC100B4C
:1046400009F05CFDCDE90A019DED0A0B51EC100B60
:1046500009F06CF808EE100A9FED2A0AB4EEC08A41
:10466000F1EE10FA06DD9FED280A38EE400AB0EEB2
:10467000408A0CE09FED250AB4EEC08AF1EE10FAF4
:1046800005D29FED210A38EE000AB0EE408AFEF70F
:1046900066FE30EE680A8DED070AF0EE000A9DED29
:1046A000070A35E025642025642025642025642040
:1046B000000000000044004025642025642025649B
:1046C000200000000000FE420000004660000020C4
:1046D00068000020700000202A0000200000000078
:1046E000009AC04000680040000000000000000088
:1046F0000080564000000080FB21094000000000BF
:1047000000806640000034430000B443000034C31E
:1047100007F0E2FDF0EE40FAFEF725FE30EE490A22
:104720008DED070AF0EE000A9DED070A07F0D4FDB3
:104730003FEE800A10EE105A284609F0C9FDCDE977
:1047400008019DED080B08F027FA8DED0A0B9DED91
:104750000A0B51EC100B08F0E9FF0DEE100A3DEECC
:104760004A0A10EE101A084609F0B2FDCDE9080118
:104770009DED080B06F07CFF8DED0A0B9DED0A0BFD
:1047800051EC100B08F0D2FF0FEE900AB0EE6F0A5A
:10479000FFF7CFFAF0EE40AAB4EECADAF1EE10FA63
:1047A0003EDDFEF7DCFD38EEC00A10EE105A28465A
:1047B00009F08EFDCDE90401FEF7D5FD39EE400A82
:1047C00010EE105A284609F083FDCDE902019DED57
:1047D000041B9DED020B06F047FD8DED060B1FED52
:1047E0003B0B53EC102B9DED060B51EC100B09F01D
:1047F0008BF81FED3E0B53EC102BCDE908019DED1E
:10480000080B51EC100B09F06DFACDE90A019DED92
:104810000A0B51EC100B08F089FF0BEE100A3DE07B
:10482000FEF79DFD30EE680A10EE105A284609F09A
:104830004FFDCDE90401FEF796FD30EE490A10EE7A
:10484000105A284609F044FDCDE902019DED041BF4
:104850009DED020B06F008FD8DED060B1FED5B0BC9
:1048600053EC102B9DED060B51EC100B09F04CF89E
:104870001FED5E0B53EC102BCDE908019DED080BED
:1048800051EC100B09F02EFACDE90A019DED0A0B4F
:1048900051EC100B08F04AFF0BEE100A5FED670AAF
:1048A00088EE200ADFEDF90A20EE200AF0EE40FA49
:1048B00006F036FE60EE29FA5FED6E0A8BEE200AF6
:1048C000DFEDF20A20EE200A8DED0B0A9DED0B0ABA
:1048D00006F026FE4AEE80FAF0EE6FDA5FED770A18
:1048E00088EE200ADFEDE90A20EE200AF0EE40FA19
:1048F00008F08AF860EE29FA5FED7E0A8BEE200A56
:10490000DFEDE20A20EE200A8DED0B0A9DED0B0A89
:1049100008F07AF84AEE80FAF0EE6FBA2DEEAD0AA2
:104920000BEEAB0A10EE101A084609F0D1FCCDE9E7
:1049300008019DED080B08F02FF98DED0A0B9DED98
:104940000A0B51EC100B08F0F1FE0EEE100A1DEEF2
:10495000900A09F0BDFCCDE904011BEE900A09F0B4
:10496000B7FCCDE902019DED041B9DED020B06F0A5
:104970007BFC8DED060B1FEDA10B53EC102B9DED79
:10498000060B51EC100B08F0BFFF1FEDA40B53EC0E
:10499000102BCDE908019DED080B51EC100B09F02F
:1049A000A1F9CDE90A019DED0A0B51EC100B08F0BD
:1049B000BDFE0EEE900AFEF7CEFCF0EE40FAF0EEF1
:1049C0006F0AB0EE6C0AFFF733F9B0EE40FABDEEB5
:1049D000CB0AFDEEEA0ACDED000A8DED010ABDEE2F
:1049E000C80A10EE103ABDEEE90A10EE102AAFF236
:1049F0004C31A748FDF765F9BDEECF0A8DED000AF1
:104A0000BDEEEE0A10EE103ABDEECE0A10EE102A00
:104A1000AFF25C319E48FDF754F9FEF79CFCF0EED6
:104A200040FAF0EE6F1AB0EE4F1AF0EE6E0AB0EEEA
:104A30004E0AFEF7CCFF8DED0C0ACDED0D0A8DED83
:104A40000E1A012C0FD1002201219248FDF77FFCA4
:104A5000002202218F48FDF77AFC002203218D48B5
:104A6000FDF775FC50E0DDED0C0A9FED881A80EE35
:104A7000810A1FEDEC1AC0EE010A1FEDED0A20EECF
:104A8000800AF7EE000A20EE200ABDEEC00A10EE02
:104A9000105A2A4601217F48FDF759FCDDED0D0A29
:104AA0009FED7A1A80EE810A1FEDFA1AC0EE010A14
:104AB0001FEDFB0A20EE800AF7EE000A20EE200A26
:104AC000BDEEC00A10EE105A2A4602217148FDF7C9
:104AD0003EFCDDED0E0A9FED6D1A80EE810A9FED22
:104AE0006E1AC0EE010A9FED6D0A20EE800AF7EE05
:104AF000000A20EE200ABDEEC00A10EE105A2A4627
:104B000003216448FDF723FC0FB0BDEC108B30BDD2
:104B1000634890ED010A7047614890ED020A7047C2
:104B200000B52DED068B83B0B0EE408AF0EE608AC2
:104B3000B0EE419AFEF70FFC38EEC00AF0EE409A54
:104B4000B1EE690AB0EE40AAFEF705FCF0EE40AA0D
:104B5000F0EE6A1AB0EE4A1AF0EE480AB0EE490AD0
:104B6000FEF735FF8DED000ACDED010A8DED021A3D
:104B700003B0BDEC068B00BD10B52DED108B82B0DF
:104B8000F0EE408AB0EE609AF0EE41AA9FED450A41
:104B9000F0EE409AFEF7E3FB38EEC00A10EE104A42
:104BA000204609F095FB41EC1C0BFEF7DCFB39EECF
:104BB000400A10EE104A204609F08AFBB0EE4C1A6B
:104BC000F0EE6C1ACDE900019DED000B06F04CFBF8
:104BD000B0EE40BAF0EE60BA9FED330B53EC102B01
:104BE00051EC1B0B08F090FE41EC1E0B9FED300BBF
:104BF00053EC102B09F076F841EC1F0B08F096FDF2
:104C00000DEE100AB2EE080AF0EE40DAFEF7ABFB4A
:104C100039EE40EAFEF7A7FB39EE400A2EEE00EA35
:104C2000FEF79DFB78EEC0EAFEF799FB38EEC00A6E
:104C30000EEE80EA1EEE104A204609F049FB41ECD8
:104C40001C0BB0EE4C0AF0EE6C0A07F0A5FFB0EEBC
:104C500040BAF0EE60BA51EC1B0B08F067FD08EEAD
:104C6000100A2DEE880AB0EE40AA9FED130AB4EEAA
:104C7000C0AAF1EE10FA03DB9FED0F0AB0EE40AAD6
:104C80000E480078062827D21AE00000DC0F4940C1
:104C900000440040006400400000FE420000004666
:104CA000A0110020000048431F85EB51B81E0940A9
:104CB000000000000080664000606A468C00002012
:104CC000DFE800F00B40829ED703AD480078022851
:104CD00002D00020AB490870CBE0B4EEE98AF1EED7
:104CE00010FA03D20120A74908702AE0A4480078EE
:104CF000F8B9A5480078C82814DAA3480078401C01
:104D0000A149087000220121A048FDF720FB0022E4
:104D100002219E48FDF71BFB002203219B48FDF763
:104D200016FB0EE003209749087000209649087092
:104D300007E0B0EE4A1AF0EE6A0AB0EE4D0AFFF74D
:104D4000EFFE96E0B4EEE98AF1EE10FA02DD002003
:104D50008C4908708A4890ED040AB5EEC00AF1EE5D
:104D600010FA0FD28A4A01218848FDF7F0FA884AE2
:104D700002218648FDF7EBFA854A03218348FDF7B7
:104D8000E6FA19E07E4890ED040AB5EEC00AF1EEAD
:104D900010FA11DD4FF47A7201217C48FDF7D7FA41
:104DA0004FF47A7202217948FDF7D1FA4FF47A7202
:104DB00003217648FDF7CBFA71480078012802D12B
:104DC00002207049087054E0002201216F48FDF76D
:104DD000BEFA002202216D48FDF7B9FA0022032134
:104DE0006A48FDF7B4FAB4EEE98AF1EE10FA06DD8E
:104DF00063480078012802D100206249087038E039
:104E00005F4890ED040AB5EEC00AF1EE10FA0FD239
:104E10005F4A01215D48FDF79AFA5D4A02215B482D
:104E2000FDF795FA5A4A03215848FDF790FA19E020
:104E3000534890ED040AB5EEC00AF1EE10FA11DD08
:104E40004FF47A7201215148FDF781FA4FF47A72DA
:104E500002214E48FDF77BFA4FF47A7203214B484A
:104E6000FDF775FA46480078012802D1002045492F
:104E7000087000BF43480078BDEEC80A8DED000AF7
:104E8000BDEECA0A10EE103ABDEECD0A10EE102AA1
:104E900040A101904348FCF714FF02B0BDEC108B19
:104EA00010BD10B52DED088BFEF755FADFED3E0A6B
:104EB00030EE200AB0EE408ADFED3C0A88EE200A90
:104EC000DFED3B0A20EE200A10EE104A204609F0E2
:104ED000FFF941EC1B0BB0EE4B0AF0EE6B0A06F04B
:104EE000BBFAB0EE40AAF0EE60AA9FED320B53EC95
:104EF000102B51EC1A0B08F0F5FE41EC190B08F0E1
:104F000015FC08EE900AB0EE680ABDEC088B10BDE7
:104F100010B52DED088BFEF71EFADFED230A30EEFB
:104F2000200AB0EE408ADFED210A88EE200ADFED8C
:104F3000200A20EE200A10EE104A204609F0C8F997
:104F400041EC1B0BB0EE4B0AF0EE6B0A07F0F8FCDD
:104F5000B0EE40AAF0EE60AA9FED160B53EC102BBA
:104F600051EC1A0B08F0BEFE41EC190B08F0DEFB09
:104F700008EE900AB0EE680ABDEC088B10BD000088
:104F8000A01100208C0000208D000020006800404F
:104F900018FCFFFF453A2025642025642025642065
:104FA00025640000004C00400000B442000034437F
:104FB000C3F548400000000000C062400CB500206E
:104FC000019000907648006840F480307449086091
:104FD00000BF7348006800F4003000900198401C46
:104FE0000190009818B90198B0F5A06FF1D16C4804
:104FF000006800F4003010B10120009001E00020B2
:1050000000900098012846D165484030006840F083
:1050100080506349403108606248006840F4804035
:10502000604908605E48083000685D4908310860E2
:105030000846006840F4004008600846006840F4F4
:10504000A05008605848091F0860081F006840F019
:105050008070091F086000BF5148006800F00070B0
:105060000028F9D040F20560504908604C480830EB
:10507000006820F003004A490831086008460068CB
:1050800040F00200086000BF45480830006800F0AA
:105090000C000828F8D10CBD10B54548006840F454
:1050A0007000434908603E48006840F001003C49F8
:1050B000086000203A4908310860394800683D49D5
:1050C0000840374908603C48091D0860081F00680F
:1050D00020F48020091F0860002031490C3108604D
:1050E000FFF76CFF4FF0006031498039086010BD58
:1050F00070B500200022022300240221284D08352B
:105100002D6805F00C0020B1042806D0082834D101
:1051100007E02A4D2A4E356033E02A4D284E35608F
:105120002FE01F4D2D1D2D68C5F380541C4D2D1DE6
:105130002D6805F03F0154B1224DB5FBF1F5184E35
:10514000361D3668C6F3881605FB06F209E01B4DCE
:10515000B5FBF1F5124E361D3668C6F3881605FB11
:1051600006F20F4D2D1D2D68C5F301456D1C6B001A
:10517000B2FBF3F5124E356003E0104D104E356072
:1051800000BF00BF064D08352D68C5F303150E4E50
:10519000705D0B4D2D68C540094E356070BD000037
:1051A000003802400070004008544007003C0240B4
:1051B00088ED00E0FFFFF6FE103000240024F4002C
:1051C0009000002000127A00940000200C48016832
:1051D00041F4700101600B4880470B480047FEE72F
:1051E000FEE7FEE7FEE7FEE7FEE7FEE7FEE7FEE797
:1051F000FEE7000005480649064A074B70470000D5
:1052000088ED00E099500008890100081030002066
:10521000103600201032002010320020AA488021D1
:1052200002E0491E002204C00029FAD1A74AA84B77
:105230001A601A46126822F007021A600022A54B73
:105240001A807047704710B50446204603F055FC9D
:1052500010BD10B50446204603F050FC10BD10B53B
:1052600003F04DFC10BD10B503F04BFC10BD70B544
:10527000044610460026051F28462E60051F2846B6
:105280002E604FF01536051F28462E604FF014365D
:10529000051F28462E604FF01336051F28462E6046
:1052A0004FF01236051F28462E604FF01136051FAD
:1052B00028462E604FF01036051F28462E604FF00E
:1052C0000936051F28462E604FF00836051F284670
:1052D0002E604FF00736051F28462E604FF0063629
:1052E000051F28462E604FF00536051F28462E6004
:1052F0004FF00436051F28462E604FF00336051F79
:1053000028462E604FF00236051F28462E60761084
:10531000051F28462E600026051F28462E604FF0E8
:105320008076051F28462E60051F28462C606A4E91
:10533000051F28462E604FF01236051F28462E60A6
:105340004FF00336051F28462E604FF00236051F2A
:1053500028462E607610051F28462E60051F284619
:1053600029604FF03136051F28462E604FF0303649
:10537000051F28462E604FF02936051F28462E604F
:105380004FF02836051F28462E604FF02736051FA0
:1053900028462E604FF02636051F28462E604FF017
:1053A0002536051F28462E604FF02436051F284657
:1053B0002E604FF02336051F28462E604FF0223610
:1053C000051F28462E604FF02136051F28462E6007
:1053D0004FF02036051F28462E604FF01936051F66
:1053E00028462E604FF01836051F28462E604FF0D5
:1053F0001736051F28462E604FF01636051F284623
:105400002E604FF01136051F28462E604FF01036E3
:10541000051F28462E604FF00936051F28462E60CE
:105420004FF00836051F28462E604FF00736051F3F
:1054300028462E604FF00636051F28462E604FF096
:105440000536051F28462E604FF00436051F2846F6
:105450002E6070BD10B503F055FB10BD10B50446AD
:10546000204603F050FB10BD10B503F04DFB19486A
:105470000088401C17490880084600880A2803D382
:105480000020088003F054FA10BD10B500F02AF88F
:10549000044612480078401C10490870204600F06D
:1054A00025F800F008FE00F00CFD10BD411E4FF085
:1054B000E0225161FF220A49CA7200214FF0E02226
:1054C00091610721116170472412002024140020EB
:1054D000A4000020A80000202B820008C5000020A6
:1054E00018ED00E0EFF3108072B6704780F310887B
:1054F000704722484FF0FF010170002080F30988B7
:105500001F48012101701F484FF08051016062B6B1
:10551000FEE71C484FF080510160704719484FF07A
:1055200080510160704772B6EFF3098040B1403896
:1055300080EC108A203880E8F00F13490968086071
:1055400000B5124880475DF804EB114811490A780C
:1055500002700D4810490A680260106890E8F00F68
:10556000203090EC108A403080F309884EF0040E11
:1055700062B6704772B6704762B6704722ED00E0BF
:10558000D200002004ED00E0D800002055540008AF
:10559000C7000020C8000020E00000201D481E4871
:1055A0001E481F481F4820482048214821482248BB
:1055B000224823482348244824482548254826488B
:1055C00026482748274828482848294829482A485B
:1055D0002A482B482B482C482C482D482D482E482B
:1055E0002E482F482F4830483048314831483248FB
:1055F00032483348334834483448354835483648CB
:10560000364837483748384838483948394800BF5D
:105610007047000098E500089CE50008A2E5000836
:10562000A4E50008A0E50008A6E50008A8E5000834
:10563000AAE50008ACE50008AEE50008B0E5000802
:10564000B2E50008B4E50008B6E50008B8E50008D2
:10565000BAE50008BCE50008BEE50008C0E50008A2
:10566000C2E50008C4E50008C6E50008C8E5000872
:10567000CAE50008CCE50008CEE50008D0E5000842
:10568000D2E50008D4E50008D6E50008D8E5000812
:10569000DAE50008DCE50008DEE50008E0E50008E2
:1056A000E2E50008E4E50008E6E50008E8E50008B2
:1056B000EAE50008EEE50008F0E50008F2E500087C
:1056C000F4E50008EC2A00206C2F0020F8E5000823
:1056D000FAE50008FCE50008FEE5000800E6000821
:1056E00002E6000804E6000806E6000808E60008EE
:1056F000F6E500080AE600080146002002E0491C21
:10570000421CD0B20A78002AF9D170472DE9F04145
:1057100005460E461446002725B9042020700020B7
:10572000BDE8F0811EB90C2020700020F8E7F74892
:10573000007818B1112020700020F1E728780128A6
:1057400008D0022807D0032802D0042804D100E0A2
:1057500000BF00BF00BF03E0012020700020DFE792
:1057600000BFFFF7BFFE0746686930603068FFF78B
:10577000C3FF80463846FFF7B9FE00202070404640
:10578000CEE72DE9F04105460E46144600271DB927
:1057900004202070BDE8F08116B90C202070F9E7D4
:1057A000DA48007810B112202070F3E72878012839
:1057B00008D0022807D0032802D0042804D100E032
:1057C00000BF00BF00BF02E001202070E2E700BF81
:1057D000FFF788FE07466E613846FFF787FE002018
:1057E000207000BFD6E7F0B5024612F8384F957822
:1057F0005678383A0B4618680FE000F10B073F5D0A
:10580000B74300F10B0C0CF8047067463F5D17B905
:10581000877AAF4387721B1D18680028EDD1F0BD51
:10582000BB49BC4A1278885CBB49095CB84A515CE8
:1058300001EBC001B94A1170704710B50024FFF7A1
:1058400051FE0446B1480078F8B9B5480078E0B98F
:10585000FFF7E6FFB348B149097850F82100B24993
:105860000860AE480078B149097888420DD0AE484A
:105870000068C06B401CAC490968C863AC4800684C
:10588000401CAB490860FFF744FE2046FFF72EFEA0
:1058900010BD70B501460024A64D2D68EC61A54CE5
:1058A000246821620B4618681BE0A24C246894F817
:1058B000385000F10B04645D9E4D2D6895F8395009
:1058C0002C439C4D2D6895F8386000F10B05AC55C4
:1058D000847A984D2D6895F83A502C4384721B1D9C
:1058E00018680028E1D1934C246894F838208A4C39
:1058F000A45C904D2D6895F83950AC43864DAC545E
:105900002C46A45C44B98B4C246894F83A50814CE2
:105910002478AC437F4D2C7070BD2DE9FF4F83B0D0
:1059200081460E461546109F00200090B9F1000FE9
:1059300005D104203870002007B0BDE8F08FD9F8F9
:10594000000018B9042038700020F5E71EB90420C3
:1059500038700020F0E71DB9042038700020EBE714
:1059600000203060CA46DAF8004015E020780628AA
:1059700007D2DFE800F006040503070807E006E0A9
:1059800005E000BF00BF012038700020D4E700BF51
:105990000AF1040ADAF80040002CE7D15B480078ED
:1059A00018B1022038700020C6E75D48007818B1B1
:1059B0000D2038700020BFE7FFF794FD0090002015
:1059C000029083460190CA46DAF8004066E02078EB
:1059D000062853D2DFE800F052172A0353542089D7
:1059E00060B12089401E208110C601200290002055
:1059F00001C50BF101001FFA80FB03E0019840F0A4
:105A00000100019045E0606858B1606801C5002060
:105A1000606010C6012002900BF101001FFA80FBAC
:105A200003E0019840F00200019032E0D4F80480D5
:105A3000B8F81600E8B1D8F81010081DC8F8100022
:105A4000086801C5D8F80810D8F81000884203D1BA
:105A5000D8F80400C8F81000B8F81600401EA8F8DE
:105A6000160010C6012002900BF101001FFA80FB06
:105A700003E0019840F0040001900AE000BF00BF7D
:105A80000098FFF733FD0020306001203870584641
:105A900052E700BF0AF1040ADAF80040002C96D160
:105AA0000298012808D1002030600098FFF71EFD01
:105AB0000020387058463FE71E48006890F83400D0
:105AC000019941F0800108431A49096881F83400BE
:105AD00000201849096881F83500164906980968B8
